{
	"2. Tipos de variaveis.sol": {
		"variaveis": {
			"abi": [
				{
					"inputs": [],
					"name": "usandoVariaveis",
					"outputs": [],
					"stateMutability": "nonpayable",
					"type": "function"
				}
			],
			"devdoc": {
				"kind": "dev",
				"methods": {},
				"version": 1
			},
			"evm": {
				"assembly": "    /* \"2. Tipos de variaveis.sol\":60:540  contract variaveis{... */\n  mstore(0x40, 0x80)\n  callvalue\n  dup1\n  iszero\n  tag_1\n  jumpi\n  revert(0x00, 0x00)\ntag_1:\n  pop\n  dataSize(sub_0)\n  dup1\n  dataOffset(sub_0)\n  0x00\n  codecopy\n  0x00\n  return\nstop\n\nsub_0: assembly {\n        /* \"2. Tipos de variaveis.sol\":60:540  contract variaveis{... */\n      mstore(0x40, 0x80)\n      callvalue\n      dup1\n      iszero\n      tag_1\n      jumpi\n      revert(0x00, 0x00)\n    tag_1:\n      pop\n      jumpi(tag_2, lt(calldatasize, 0x04))\n      shr(0xe0, calldataload(0x00))\n      dup1\n      0x0847a82c\n      eq\n      tag_3\n      jumpi\n    tag_2:\n      revert(0x00, 0x00)\n        /* \"2. Tipos de variaveis.sol\":459:529  function usandoVariaveis() external {... */\n    tag_3:\n      tag_4\n      tag_5\n      jump\t// in\n    tag_4:\n      stop\n    tag_5:\n        /* \"2. Tipos de variaveis.sol\":506:513  numeros */\n      0x03\n        /* \"2. Tipos de variaveis.sol\":519:520  5 */\n      0x05\n        /* \"2. Tipos de variaveis.sol\":506:521  numeros.push(5) */\n      swap1\n      dup1\n      0x01\n      dup2\n      sload\n      add\n      dup1\n      dup3\n      sstore\n      dup1\n      swap2\n      pop\n      pop\n      0x01\n      swap1\n      sub\n      swap1\n      0x00\n      mstore\n      keccak256(0x00, 0x20)\n      add\n      0x00\n      swap1\n      swap2\n      swap1\n      swap2\n      swap1\n      swap2\n      pop\n      sstore\n        /* \"2. Tipos de variaveis.sol\":459:529  function usandoVariaveis() external {... */\n      jump\t// out\n\n    auxdata: 0xa264697066735822122057d90fd8861cc4604c2c630a39c2ddd113d1d6dcea9b7322b172c3ebba9cbaf264736f6c634300081f0033\n}\n",
				"bytecode": {
					"linkReferences": {},
					"object": "6080604052348015600e575f5ffd5b50609180601a5f395ff3fe6080604052348015600e575f5ffd5b50600436106026575f3560e01c80630847a82c14602a575b5f5ffd5b60306032565b005b60036005908060018154018082558091505060019003905f5260205f20015f909190919091505556fea264697066735822122057d90fd8861cc4604c2c630a39c2ddd113d1d6dcea9b7322b172c3ebba9cbaf264736f6c634300081f0033",
					"opcodes": "PUSH1 0x80 PUSH1 0x40 MSTORE CALLVALUE DUP1 ISZERO PUSH1 0xE JUMPI PUSH0 PUSH0 REVERT JUMPDEST POP PUSH1 0x91 DUP1 PUSH1 0x1A PUSH0 CODECOPY PUSH0 RETURN INVALID PUSH1 0x80 PUSH1 0x40 MSTORE CALLVALUE DUP1 ISZERO PUSH1 0xE JUMPI PUSH0 PUSH0 REVERT JUMPDEST POP PUSH1 0x4 CALLDATASIZE LT PUSH1 0x26 JUMPI PUSH0 CALLDATALOAD PUSH1 0xE0 SHR DUP1 PUSH4 0x847A82C EQ PUSH1 0x2A JUMPI JUMPDEST PUSH0 PUSH0 REVERT JUMPDEST PUSH1 0x30 PUSH1 0x32 JUMP JUMPDEST STOP JUMPDEST PUSH1 0x3 PUSH1 0x5 SWAP1 DUP1 PUSH1 0x1 DUP2 SLOAD ADD DUP1 DUP3 SSTORE DUP1 SWAP2 POP POP PUSH1 0x1 SWAP1 SUB SWAP1 PUSH0 MSTORE PUSH1 0x20 PUSH0 KECCAK256 ADD PUSH0 SWAP1 SWAP2 SWAP1 SWAP2 SWAP1 SWAP2 POP SSTORE JUMP INVALID LOG2 PUSH5 0x6970667358 0x22 SLT KECCAK256 JUMPI 0xD9 0xF 0xD8 DUP7 SHR 0xC4 PUSH1 0x4C 0x2C PUSH4 0xA39C2DD DATALOADN 0x13D1 0xD6 0xDC 0xEA SWAP12 PUSH20 0x22B172C3EBBA9CBAF264736F6C634300081F0033 "
				},
				"gasEstimates": {
					"creation": {
						"codeDepositCost": "29000",
						"executionCost": "79",
						"totalCost": "29079"
					},
					"external": {
						"usandoVariaveis()": "46541"
					}
				},
				"methodIdentifiers": {
					"usandoVariaveis()": "0847a82c"
				}
			},
			"storageLayout": {
				"storage": [
					{
						"astId": 3,
						"contract": "2. Tipos de variaveis.sol:variaveis",
						"label": "idade",
						"offset": 0,
						"slot": "0",
						"type": "t_uint256"
					},
					{
						"astId": 5,
						"contract": "2. Tipos de variaveis.sol:variaveis",
						"label": "nome",
						"offset": 0,
						"slot": "1",
						"type": "t_string_storage"
					},
					{
						"astId": 7,
						"contract": "2. Tipos de variaveis.sol:variaveis",
						"label": "carteira",
						"offset": 0,
						"slot": "2",
						"type": "t_address"
					},
					{
						"astId": 9,
						"contract": "2. Tipos de variaveis.sol:variaveis",
						"label": "ativo",
						"offset": 20,
						"slot": "2",
						"type": "t_bool"
					},
					{
						"astId": 12,
						"contract": "2. Tipos de variaveis.sol:variaveis",
						"label": "numeros",
						"offset": 0,
						"slot": "3",
						"type": "t_array(t_uint256)dyn_storage"
					},
					{
						"astId": 15,
						"contract": "2. Tipos de variaveis.sol:variaveis",
						"label": "clientes",
						"offset": 0,
						"slot": "4",
						"type": "t_array(t_string_storage)dyn_storage"
					},
					{
						"astId": 18,
						"contract": "2. Tipos de variaveis.sol:variaveis",
						"label": "carteiras",
						"offset": 0,
						"slot": "5",
						"type": "t_array(t_address)dyn_storage"
					},
					{
						"astId": 22,
						"contract": "2. Tipos de variaveis.sol:variaveis",
						"label": "saldos",
						"offset": 0,
						"slot": "6",
						"type": "t_mapping(t_address,t_uint256)"
					}
				],
				"types": {
					"t_address": {
						"encoding": "inplace",
						"label": "address",
						"numberOfBytes": "20"
					},
					"t_array(t_address)dyn_storage": {
						"base": "t_address",
						"encoding": "dynamic_array",
						"label": "address[]",
						"numberOfBytes": "32"
					},
					"t_array(t_string_storage)dyn_storage": {
						"base": "t_string_storage",
						"encoding": "dynamic_array",
						"label": "string[]",
						"numberOfBytes": "32"
					},
					"t_array(t_uint256)dyn_storage": {
						"base": "t_uint256",
						"encoding": "dynamic_array",
						"label": "uint256[]",
						"numberOfBytes": "32"
					},
					"t_bool": {
						"encoding": "inplace",
						"label": "bool",
						"numberOfBytes": "1"
					},
					"t_mapping(t_address,t_uint256)": {
						"encoding": "mapping",
						"key": "t_address",
						"label": "mapping(address => uint256)",
						"numberOfBytes": "32",
						"value": "t_uint256"
					},
					"t_string_storage": {
						"encoding": "bytes",
						"label": "string",
						"numberOfBytes": "32"
					},
					"t_uint256": {
						"encoding": "inplace",
						"label": "uint256",
						"numberOfBytes": "32"
					}
				}
			},
			"userdoc": {
				"kind": "user",
				"methods": {},
				"version": 1
			}
		}
	}
}